:107E0000112484B714BE982F9D7009F0E2D082E04F
:107E10008093C00088E18093C10086E08093C20017
:107E200080E18093C4008EE0BFD010928500109254
:107E300084004899FECF489BFECF81E0809381006B
:107E40004899FECF1092810020918400822F2091CA
:107E50008500922F089644E0969587954A95E1F71C
:107E600001978093C40094D08033E9F7A3D0C0E099
:107E7000D0E093E0F92EEE24E39425E0D22E31E118
:107E8000C32E86D0813471F483D0182F93D012384A
:107E900011F482E005C0113811F486E001C083E0DE
:107EA00070D06CC0823411F484E103C0853419F4BD
:107EB00085E088D063C0853541F46AD0C82F68D08A
:107EC000D0E0D82BCC0FDD1F58C0863521F484E0DC
:107ED00079D080E0E5CF843609F032C059D058D04F
:107EE000B82E56D0A82E00E011E052D0F8018193B0
:107EF0008F01BE12FACF5ED0F5E4AF1201C0FFCF02
:107F0000FE01F7BEE89507B600FCFDCFFE01A0E03C
:107F1000B1E08C9111962C91119790E0922B0C016D
:107F2000E7BEE895112432961296BA12F2CFFE01FE
:107F3000D7BEE89507B600FCFDCFC7BEE8951EC0CA
:107F4000843771F425D024D0B82E22D033D08E01BE
:107F5000F80185918F0115D0BA94B110F9CF0EC0F8
:107F6000853739F427D08EE10CD085E90AD086E137
:107F700097CF813511F488E017D01CD080E101D073
:107F800080CF9091C00095FFFCCF8093C6000895EC
:107F90008091C00087FFFCCF8091C00084FD01C0AC
:107FA000A8958091C6000895E0E6F0E098E19083FE
:107FB00080830895EDDF803219F088E0F5DFFFCF90
:107FC00084E1DFCFCF93C82FE3DFC150E9F7CF9132
:0E7FD000F1CF282E80E0E8DFE0E0FF270994E3
:0400000300007E007B
:00000001FF
